:020000040000FA
:08000000803102288731F52F41
:1009560016302100970008008431EE248431080007
:1009660071082000B6007008B50008007108200064
:10097600BA007008B900080071082000B8007008B5
:10098600B7000800F10071088431CB2484310800D7
:10099600F0002000111ED02CD12CCC2C7008230086
:1009A6009A000800703021009900980122009601F3
:1009B60021001A1FDF2CE02CDB2C08008431FD24DB
:1009C60084318431D52484318431AB24843185311A
:1009D6001525843108002000911EF22CF32CEE2CF4
:1009E600BB0123009D1CF82CF92CFB2C1D121D1697
:1009F6001908080022008C018D01F33021008C00BB
:100A0600FF308D00DA3023008D0011308C00240079
:100A16008D018C0121009517803022009D00013048
:100A26009E000800083023009F0090309D0024306F
:100A36009E0040309B0003309C000030F0000030E8
:100A4600F1008431B92485310030F0000030F10026
:100A56008431BF2485310030F0000030F10084314C
:100A6600B32485312000BB010800F400F501572DA1
:100A760086313A268531F3007308F6007608303E53
:100A86008431C52485310330760603194B2D4C2D50
:100A96005D2D02307606031D512D522D532D5D2DF1
:100AA6000130F3007308F50774087502031C5C2D0A
:100AB6005D2D3B2D08002000B10186313A26853197
:100AC6002000AE002E08B0003008303E8431C52428
:100AD600853101302000AE002E08B1070530310205
:100AE600031C762D772D602D02302000AF000430D8
:100AF600AE00BA30890B7D2DAE0B7D2DAF0B7D2D53
:100B06000000C9302000A0008830A10087313327BB
:100B160085310800780879040319922D932DBC2D90
:100B2600FD01FD0A9F2D0130F835F90D890B972D32
:100B36000130FC007C08FD07F91FA22DA32D962D80
:100B460079087B02031DA92D78087A02031CAC2DB7
:100B5600AD2DB12D7808FA027908FB3B0130F93644
:100B6600F80C890BB22D0130FD02031DBB2DBC2DE7
:100B7600A32D7B08F9007A08F8000800F501F601B4
:100B8600700871040319C82DC92DF82DF701F70A4D
:100B9600D52D0130F035F10D890BCD2D0130F40046
:100BA6007408F707F11FD82DD92DCC2D0130F53556
:100BB600F60D890BDA2D71087302031DE42D7008FA
:100BC6007202031CE72DE82DED2D7008F202710864
:100BD600F33B75140130F136F00C890BEE2D013024
:100BE600F702031DF72DF82DD92D7608F1007508AB
:100BF600F0000800F101F201082E0130F107003083
:100C0600F23D0D30890B052E000020008C1C0C2EA9
:100C16000D2E002E7208803AF00083307002031DFC
:100C2600162E21307102031C192E1A2E1B2E392E58
:100C3600F101F201342E0130F1070030F23D0D30A2
:100C4600890B232E00007208803AF0008130700272
:100C5600031D2F2EF5307102031C322E332E342E37
:100C6600392E20008C18382E392E1E2E0800F10140
:100C7600F201452E0130F1070030F23D0D30890BAF
:100C8600422E000020008C1C492E4A2E3D2EF101DA
:100C9600F201642E0130F1070030F23D0D30890B70
:100CA600522E00007208803AF00081307002031D57
:100CB6005E2E2D307102031C612E622E642E0330CF
:100CC600792E20008C18682E692E4D2E7208803AD7
:100CD600F00080307002031D722E6430710203181A
:100CE600752E762E782E0030792E0130080084314C
:100CF600E124863122000C158631D3268631200068
:100D0600B401892E0D30890B862E000020008C1828
:100D16008D2E8E2E852E85315E2586318531FD25DB
:100D26008631A0308531382586317C308431C52422
:100D3600863102302000B3006C30B2009F30890B40
:100D4600A22EB20BA22EB30BA22E00328531FD25A8
:100D5600863198308531382586317C308431C524FA
:100D66008631C3302000A0008830A10087313327A8
:100D760086313C302000A0008830A1003408B20043
:100D8600B3013208A2003308A30087313327863126
:100D960001302000B2003208B407892E80310228C3
:100DA600B6302000A0008830A10087313327863175
:100DB6005D302000A0008830A100873133278631BE
:100DC6000A302000A0008830A10087313327863101
:100DD6008431AF2486312000AE002E08AF004E309D
:100DE6002F06031DF72EF82E002FA930A0008830FD
:100DF600A1008731332786312A2F41302F06031D64
:100E0600052F062F0E2F8D30A0008830A1008731C8
:100E1600332786312A2F44302F06031D132F142F14
:100E26001C2F7D30A0008830A10087313327863102
:100E36002A2F53302F06031D212F222F2A2F9B30B6
:100E4600A0008830A1008731332786312A2F5D30F4
:100E56002000A0008830A1008731332786310800A2
:100E660022302000A4002408A800DF2F25302D06FC
:100E760003193E2F3F2F442F2D088431C524873177
:100E8600DF2FA9012108A5002008A400A00A031944
:100E9600A10A24088400250885000008AD00003A50
:100EA6000319F42F643A03195C2F0D3A03195C2FCA
:100EB600DF2F280886008701403FAB00413FAC008A
:100EC6000230A4002408A807AC1F6A2F6B2F742FCA
:100ED6000330A4002408A904AB09AC09AB0A031922
:100EE600AC0AAD01AD0A2D08A400A501A435A50DD7
:100EF6000030240784008830253D8500003FA60089
:100F0600013FA70027082C02031D8B2F26082B0262
:100F160003188E2F8F2F902F9A2F0130A4002408AC
:100F2600AD0705302D06031D992F9A2F762F290818
:100F3600033903199F2FA02FA42F2D308431C524E8
:100F4600873120002D08A4002408AA00D52F0A30D6
:100F5600F8000030F9002A08A400A501A435A50D63
:100F66000030240784008830253D8500003FF000CE
:100F7600013FF1002C08F3002B08F2008531C12552
:100F860087317108FB007008FA0085318D2587319D
:100F96007808303E2000A6002608AD002D088431D2
:100FA600C5248731FF302000A4002408AA072A0A96
:100FB600031DDE2FDF2FAA2F20002108A500200801
:100FC600A400A00A0319A10A2408840025088500A4
:100FD6000008A6002608AD002D08031DF32FF42FE8
:100FE600392F08002000B501B601B701B801B901D3
:100FF600BA01BB01200086317A2E013400340A344E
:10100600003464340034E8340334103427344E3466
:10101600453443343A344E3420347C34203441341D
:101026004534483441343A34413420347C34203415
:101036004434413449344B3449344E343A344434DC
:1010460020347C34203453344F344E3459343A34BB
:1010560053347C3428342A34643465346634613439
:1010660075346C3474343A34443429340D340A34C7
:1010760000345B34253464345D342D342D342D3402
:101086002D342D342D342D342D342D342D342D3452
:101096002D342D342D342D342D342D342D342D3442
:1010A6002D342D342D342D342D342D342D340D3452
:1010B6000A3400342D342D342D342D342D342D3472
:1010C6002D342D342D342D342D342D342D342D3412
:1010D6002D342D342D342D342D342D342D342D3402
:1010E6002D342D342D342D342D342D342D340D3412
:1010F6000A340034443465347434653463347434E7
:1011060020344434413449344B3449344E340D345C
:101116000A340034443465347434653463347434C6
:10112600203441344534483441340D340A340034D3
:10113600443465347434653463347434203453343D
:101146004F344E3459340D340A3400344434653443
:10115600743465346334743420344E344534433443
:101166000D340A3400344934523420345234653450
:10117600633469347634653472340D340A34003499
:1011860065346E3464340D340A3400347C347C3473
:02119600003423
:020000040001F9
:04000E00E4FFFFDF2D
:00000001FF
