:020000040000FA
:08000000803102288731F12F45
:100AEC00163021009700080071082100C70070081B
:100AFC00C600080071082100CB007008CA0008006D
:100B0C0071082100C9007008C8000800F1007108C4
:100B1C008531982585310800640080010131890BED
:100B2C00932D0034F0002000111E9D2D9E2D992D2B
:100B3C00700823009A000800703021009900980179
:100B4C002200960121001A1FAC2DAD2DA82D0800F6
:100B5C008531CD2585318531A225853185317625A7
:100B6C0085318531E525853108002F30FD007D0864
:100B7C002000B1002E08A6002D08A5003130FD0084
:100B8C007D08A70000308631082685310800220038
:100B9C008C018D01FB3021008C00FF308D00DA3090
:100BAC0023008D0019308C0024008D018C01210054
:100BBC009517803022009D0001309E0008000830FF
:100BCC0023009F0090309D0024309E0040309B00FD
:100BDC0003309C000030F0000030F100853180259E
:100BEC0085310030F0000030F100853186258531EB
:100BFC000030F0000030F10085317A25853120007D
:100C0C00EE0108002000AA002608AC002508AB0065
:100C1C00EC01ED01222E2B30A8002808FA00270841
:100C2C00A9002908FB002A088731752786317A0824
:100C3C002000EC077B08ED3D2B0884002C08850078
:100C4C001200031D2A2E2B2E112E6D08A6006C08E7
:100C5C00A50008002000B800B901562E87311327D3
:100C6C0086312000B6003608BA0003303A06031D60
:100C7C00402E412E422E5C2E3A08B6003908380719
:100C8C00B700370886008701360881003A08303EE5
:100C9C0085318C25863101302000B6003608B90725
:100CAC0035083902031C5B2E5C2E342E080085316E
:100CBC00AE25863100302000AD008830AE00853185
:100CCC00BB25863115302000AD008830AE00853153
:100CDC00BB25863122000C15772E0D30890B742E16
:100CEC00000020008C187B2E7C2E732E86319726CC
:100CFC00863130302000BB003B08B5003C308631DB
:100D0C00302686317C3085318C258631153020009B
:100D1C00AD008830AE008531BB258631772E803111
:100D2C000228F101F201A22E0130F1070030F23D50
:100D3C000D30890B9F2E000020008C1CA62EA72E98
:100D4C009A2E7208803AF00083307002031DB02E88
:100D5C0021307102031CB32EB42EB52ED32EF1010B
:100D6C00F201CE2E0130F1070030F23D0D30890B2F
:100D7C00BD2E00007208803AF00081307002031D15
:100D8C00C92EF5307102031CCC2ECD2ECE2ED32EB7
:100D9C0020008C18D22ED32EB82E080074080319FC
:100DAC00D82ED92EDE2E7408031DDD2EDE2EE32E5A
:100DBC00720885318C258631122F7408033E86000B
:100DCC008701160001040319EC2EED2E0A2F74086E
:100DDC00033E86008701403FF500413FF600740A50
:100DEC0086008701403FF700413FF8007808803AC1
:100DFC00F9007608803A7902031D062F75087702F0
:100E0C000318092F0A2F122F740A8600870101304C
:100E1C00810741310318810A08002000B301B40195
:100E2C001F2F0130B3070030B43D0D30890B1C2F40
:100E3C00000020008C1C232F242F172F3408803AFD
:100E4C00B20080303202031D2D2F323033020318D2
:100E5C00302F312F3B2F18302000AD008830AE00E2
:100E6C008531BB2587310230742F2000B301B401CA
:100E7C005F2F0130B3070030B43D0D30890B442F88
:100E8C00000020003408803AB20087303202031D83
:100E9C00512F09303302031C542F552F5F2F113063
:100EAC002000AD008830AE008531BB258731033082
:100EBC00742F20008C18632F642F3F2F3408803A36
:100ECC00B20080303202031D6D2F643033020318E0
:100EDC00702F712F732F0030742F01300800FC001D
:100EEC007A0886008701403F2000A000413FA10006
:100EFC0020088400210885001200253A031D872F45
:100F0C00882FCE2F7A088600870101308107413166
:100F1C000318810A2100C001C101C401C501FF30C1
:100F2C00C200FF30C3007A0886008701403F2000D2
:100F3C00A000413FA1002008840021088500120078
:100F4C00253A031DAA2FAB2FC32F7A0886008701E1
:100F5C000130810741310318810A2530F20000303D
:100F6C00F3007C08A0002008F4008631D4268731D9
:100F7C000130FA000030FB00F02F7A088600870160
:100F8C000130810741310318810AFA01FB01F02F6E
:100F9C007A0886008701403FA000413FA10020084D
:100FAC008400210885000008A200A3012208F20099
:100FBC002308F3007C08A4002408F4008631D4260E
:100FCC0087317A0886008701013081074131031887
:100FDC00810ABE2F08002000EC01ED01EE01A030CB
:100FEC008400003085002C3085319225873120001B
:100FFC0086315D2E69346E34693474342034413456
:10100C00453448344134203466346F3472346D3492
:10101C0061347434003465346E34643400340D340B
:08102C000A340034653400347D
:020000040001F9
:04000E00E4FFFFDF2D
:00000001FF
