:020000040000FA
:08000000803102288731F52F41
:1009F200163021009700080071082000B600700828
:100A0200B500080071082000BA007008B90008009B
:100A120071082000B8007008B7000800F1007108E2
:100A22008531152585310800F0002000111E1A2D90
:100A32001B2D162D700823009A000800703021002B
:100A4200990098012200960121001A1F292D2A2DB2
:100A5200252D080085313825853185311F258531C1
:100A62008431F924853185315025853108002200F1
:100A72008C018D01F33021008C00FF308D00DA30C3
:100A820023008D0011308C0024008D018C01210087
:100A92009517803022009D0001309E00080008302A
:100AA20023009F0090309D0024309E0040309B0028
:100AB20003309C000030F0000030F1008531032546
:100AC20085310030F0000030F10085310925853193
:100AD2000030F0000030F1008431FD248531200027
:100AE200BB010800F400F501922D8631752685318F
:100AF200F3007308F6007608303E85310F25853104
:100B0200033076060319862D872D982D023076063E
:100B1200031D8C2D8D2D8E2D982D0130F300730821
:100B2200F50774087502031C972D982D762D080081
:100B32002000B1018631752685312000AE002E08D5
:100B4200B0003008303E85310F258531013020005C
:100B5200AE002E08B10705303102031CB12DB22DB3
:100B62009B2D02302000AF000430AE00BA30890B5A
:100B7200B82DAE0BB82DAF0BB82D0000643020009D
:100B8200A0008830A100873133278531080078081A
:100B920079040319CD2DCE2DF72DFD01FD0ADA2D95
:100BA2000130F835F90D890BD22D0130FC007C089B
:100BB200FD07F91FDD2DDE2DD12D79087B02031DE6
:100BC200E42D78087A02031CE72DE82DEC2D780835
:100BD200FA027908FB3B0130F936F80C890BED2D4E
:100BE2000130FD02031DF62DF72DDE2D7B08F900E5
:100BF2007A08F8000800F501F6017008710403197B
:100C0200032E042E332EF701F70A102E0130F03591
:100C1200F10D890B082E0130F4007408F707F11F5B
:100C2200132E142E072E0130F535F60D890B152ED5
:100C320071087302031D1F2E70087202031C222EFC
:100C4200232E282E7008F2027108F33B751401302E
:100C5200F136F00C890B292E0130F702031D322EDA
:100C6200332E142E7608F1007508F0000800F10109
:100C7200F201432E0130F1070030F23D0D30890BB5
:100C8200402E000020008C1C472E482E3B2E72085E
:100C9200803AF00083307002031D512E2130710220
:100CA200031C542E552E562E742EF101F2016F2E76
:100CB2000130F1070030F23D0D30890B5E2E00004D
:100CC2007208803AF00081307002031D6A2EF530FE
:100CD2007102031C6D2E6E2E6F2E742E20008C1846
:100CE200732E742E592E0800F101F201802E01306C
:100CF200F1070030F23D0D30890B7D2E00002000FF
:100D02008C1C842E852E782EF101F2019F2E01304B
:100D1200F1070030F23D0D30890B8D2E0000720874
:100D2200803AF00086307002031D992E4130710224
:100D3200031C9C2E9D2E9F2E0330B42E20008C1857
:100D4200A32EA42E882E7208803AF0008030700202
:100D5200031DAD2E643071020318B02EB12EB32ED6
:100D62000030B42E0130080085312B2586314B30FE
:100D72002000A0008830A1008731332786312B3034
:100D82002000A0008830A10087313327863122005D
:100D92000C152000B401D12E0D30890BCE2E00008F
:100DA20020008C18D52ED62ECD2E85319925863150
:100DB20086313826863140308531732586317C3044
:100DC20085310F25863102302000B3006230B20037
:100DD2003B30890BEA2EB20BEA2EB30BEA2E00321D
:100DE20086313826863140308531732586317C3014
:100DF20085310F25863102302000B3006230B20007
:100E02003B30890B022FB20B022FB30B022F0032A1
:100E1200863138268631A0308531732586317C3083
:100E220085310F2586315E302000A0008830A10078
:100E32008731332786310A302000A0008830A10094
:100E42003408B200B3013208A2003308A30087318C
:100E52003327863101302000B2003208B407D12E88
:100E62008031022822302000A4002408A800DF2FAD
:100E720025302D0603193E2F3F2F442F2D08853193
:100E82000F258731DF2FA9012108A5002008A40022
:100E9200A00A0319A10A2408840025088500000875
:100EA200AD00003A0319F42F643A03195C2F0D3A8E
:100EB20003195C2FDF2F280886008701403FAB0013
:100EC200413FAC000230A4002408A807AC1F6A2FDF
:100ED2006B2F742F0330A4002408A904AB09AC09BA
:100EE200AB0A0319AC0AAD01AD0A2D08A400A50195
:100EF200A435A50D0030240784008830253D8500E7
:100F0200003FA600013FA70027082C02031D8B2FDC
:100F120026082B0203188E2F8F2F902F9A2F013025
:100F2200A4002408AD0705302D06031D992F9A2F22
:100F3200762F2908033903199F2FA02FA42F2D30B4
:100F420085310F25873120002D08A4002408AA002E
:100F5200D52F0A30F8000030F9002A08A400A501B4
:100F6200A435A50D0030240784008830253D850076
:100F7200003FF000013FF1002C08F3002B08F200C3
:100F82008531FC2587317108FB007008FA00853134
:100F9200C82587317808303E2000A6002608AD001B
:100FA2002D0885310F258731FF302000A400240849
:100FB200AA072A0A031DDE2FDF2FAA2F20002108ED
:100FC200A5002008A400A00A0319A10A240884008D
:100FD200250885000008A6002608AD002D08031D7F
:100FE200F32FF42F392F08002000B501B601B70105
:100FF200B801B901BA01BB0120008631B52E013416
:1010020000340A34003464340034E83403341034D5
:1010120027345B34253464345D342D342D342D343F
:101022002D342D342D342D342D342D342D342D34B6
:101032002D342D342D342D342D342D342D342D34A6
:101042002D342D342D342D342D342D342D340D34B6
:101052000A3400342D342D342D342D342D342D34D6
:101062002D342D342D342D342D342D342D342D3476
:101072002D342D342D342D342D342D342D342D3466
:101082002D342D342D342D342D342D342D340D3476
:101092000A34003469346E3469347434203441348F
:1010A200453448344134203466346F3472346D34FC
:1010B200613474340D340A34003465346E3464346B
:0C10C2000D340A3400347C347C340034DB
:020000040001F9
:04000E00E43FFF1FAD
:00000001FF
