:020000040000FA
:08000000803102288731F52F41
:10086600080008001630210097000800843178241B
:1008760084310800F1007108843155248431080060
:1008860071082000B9007008B8000800710820003F
:10089600BD007008BC00080071082000BB0070088D
:1008A600BA000800F0002000111E5A2C5B2C562CB2
:1008B600700823009A000800703021009900980102
:1008C6002200960121001A1F692C6A2C652C08004B
:1008D60084319B24843184315F24843184313524EE
:1008E60084318431B324843108002000911E7C2C8D
:1008F6007D2C782CBE0123009D1C822C832C852CFC
:100906001D121D16190808008531E825843130307E
:100916008431D62484317C3084313D24843139308D
:100926002000A0008830A1008731332784310800D9
:1009360022008C018D01323021008C007F308D0029
:100946005A3023008D0010308C0024008D018C015C
:1009560021009517803022009D0001309E0008007E
:10096600083023009F0090309D0024309E004030C8
:100976009B0003309C000030F0000030F100843111
:10098600492484310030F0000030F10084314F24D6
:1009960084310030F0000030F1008431432484318A
:1009A6002000BE010800F400F501F52C863125264D
:1009B6008431F3007308F6007608303E84313D2416
:1009C6008431033076060319E92CEA2CFB2C02301D
:1009D6007606031DEF2CF02CF12CFB2C0130F300D6
:1009E6007308F50774087502031CFA2CFB2CD92C26
:1009F6000800F400F5011B2D863125268431F3000D
:100A06007308F6007608303E84313D248431033085
:100A1600760603190F2D102D212D02307606031DA3
:100A2600152D162D172D212D0130F3007308F5070E
:100A360074087502031C202D212DFF2C080085311A
:100A4600492585318531E8258531A0308431FC245E
:100A560085317C3084313D24853102302000B3005D
:100A66006C30B2009F30890B362DB20B362DB30B8E
:100A7600362D00328531E825853198308431FC24C5
:100A860085317C3084313D24853108002000B10158
:100A96008631252685312000AE002E08B0003008AC
:100AA600303E84313D24853101302000AE002E08D1
:100AB600B10705303102031C612D622D4B2D02302A
:100AC6002000AF000430AE00BA30890B682DAE0BA3
:100AD600682DAF0B682D0000D7302000A0008830AD
:100AE600A100873133278531080078087904031976
:100AF6007D2D7E2DA72DFD01FD0A8A2D0130F835AD
:100B0600F90D890B822D0130FC007C08FD07F91FC9
:100B16008D2D8E2D812D79087B02031D942D78084D
:100B26007A02031C972D982D9C2D7808FA027908D5
:100B3600FB3B0130F936F80C890B9D2D0130FD0287
:100B4600031DA62DA72D8E2D7B08F9007A08F80027
:100B56000800F501F601700871040319B32DB42DD0
:100B6600E32DF701F70AC02D0130F035F10D890BA1
:100B7600B82D0130F4007408F707F11FC32DC42DFA
:100B8600B72D0130F535F60D890BC52D71087302A9
:100B9600031DCF2D70087202031CD22DD32DD82D24
:100BA6007008F2027108F33B75140130F136F00C4F
:100BB600890BD92D0130F702031DE22DE32DC42D3B
:100BC6007608F1007508F0000800F101F201F32D36
:100BD6000130F1070030F23D0D30890BF02D000099
:100BE60020008C1CF72DF82DEB2D7208803AF000B2
:100BF60083307002031D012E21307102031C042E66
:100C0600052E062E242EF101F2011F2E0130F107CA
:100C16000030F23D0D30890B0E2E00007208803A2E
:100C2600F00081307002031D1A2EF5307102031C8C
:100C36001D2E1E2E1F2E242E20008C18232E242E11
:100C4600092E0800F101F201302E0130F1070030C3
:100C5600F23D0D30890B2D2E000020008C1C342E09
:100C6600352E282EF101F2014F2E0130F10700300A
:100C7600F23D0D30890B3D2E00007208803AF000DF
:100C860081307002031D492E2D307102031C4C2E3B
:100C96004D2E4F2E0330642E20008C18532E542ECA
:100CA600382E7208803AF00080307002031D5D2EE7
:100CB600643071020318602E612E632E0030642E9C
:100CC6000130080084316B24863122000C158631F0
:100CD600C32686312000B4003408B700B601772E4B
:100CE6000D30890B742E000020008C187B2E7C2E74
:100CF600732E44303706031D812E822E862E8531B3
:100D060022258631A42E41303706031D8B2E8C2ECC
:100D1600902E843187248631A42E53303706031D46
:100D2600952E962E9A2E843134248631A42E4E305A
:100D36003706031D9F2EA02EA42E84313324863120
:100D4600A42ED1302000A0008830A100873133279F
:100D560086313C302000A0008830A1003608B4005F
:100D6600B5013408A2003508A30087313327863140
:100D760001302000B4003408B607772E80310228EF
:100D86007D302000A0008830A100873133278631CE
:100D96005D302000A0008830A100873133278631DE
:100DA6000A302000A0008830A10087313327863121
:100DB6008431392486312000AE002E08AF004E3033
:100DC6002F06031DE72EE82EF22EC430A000883031
:100DD600A10087313327863122000C14282F413099
:100DE6002F06031DF72EF82E022FA830A0008830FC
:100DF600A10087313327863122008C17282F4430F3
:100E06002F06031D072F082F122F9830A0008830B9
:100E1600A10087313327863122000C17282F533043
:100E26002F06031D172F182F222FB630A00088304B
:100E3600A10087313327863122008D17282F4430B1
:100E4600AE002E08AF0022000C175D302000A00077
:100E56008830A10087313327863120002F0808000B
:100E660022302000A4002408A800DF2F25302D06FC
:100E760003193E2F3F2F442F2D0884313D248731FF
:100E8600DF2FA9012108A5002008A400A00A031944
:100E9600A10A24088400250885000008AD00003A50
:100EA6000319F42F643A03195C2F0D3A03195C2FCA
:100EB600DF2F280886008701403FAB00413FAC008A
:100EC6000230A4002408A807AC1F6A2F6B2F742FCA
:100ED6000330A4002408A904AB09AC09AB0A031922
:100EE600AC0AAD01AD0A2D08A400A501A435A50DD7
:100EF6000030240784008830253D8500003FA60089
:100F0600013FA70027082C02031D8B2F26082B0262
:100F160003188E2F8F2F902F9A2F0130A4002408AC
:100F2600AD0705302D06031D992F9A2F762F290818
:100F3600033903199F2FA02FA42F2D3084313D2470
:100F4600873120002D08A4002408AA00D52F0A30D6
:100F5600F8000030F9002A08A400A501A435A50D63
:100F66000030240784008830253D8500003FF000CE
:100F7600013FF1002C08F3002B08F2008531AC2567
:100F860087317108FB007008FA00853178258731B2
:100F96007808303E2000A6002608AD002D088431D2
:100FA6003D248731FF302000A4002408AA072A0A1E
:100FB600031DDE2FDF2FAA2F20002108A500200801
:100FC600A400A00A0319A10A2408840025088500A4
:100FD6000008A6002608AD002D08031DF32FF42FE8
:100FE600392F08002000B801B901BA01BB01BC01C4
:100FF600BD01BE0120008631652E013400340A345D
:10100600003464340034E8340334103427344E3466
:10101600453443343A344E3420347C34203441341D
:101026004534483441343A34413420347C34203415
:101036004434413449344B3449344E343A344434DC
:1010460020347C34203453344F344E3459343A34BB
:1010560053347C3428342A34643465346634613439
:1010660075346C3474343A34443429340D340A34C7
:1010760000345B34253464345D342D342D342D3402
:101086002D342D342D342D342D342D342D342D3452
:101096002D342D342D342D342D342D342D342D3442
:1010A6002D342D342D342D342D342D342D340D3452
:1010B6000A3400342D342D342D342D342D342D3472
:1010C6002D342D342D342D342D342D342D342D3412
:1010D6002D342D342D342D342D342D342D342D3402
:1010E6002D342D342D342D342D342D342D340D3412
:1010F6000A3400344934523420345234653463346B
:101106006934763465347234203456346534723436
:10111600733469346F346E34203431342E343034C1
:101126002E3430340D340A34003444346534743487
:1011360065346334743420344434413449344B3494
:1011460049344E340D340A3400344434653474342E
:10115600653463347434203441344534483441347E
:101166000D340A34003444346534743465346334DD
:101176007434203453344F344E3459340D340A34D5
:101186000034443465347434653463347434203440
:101196004E34453443340D340A34003465346E34E9
:0E11A60064340D340A3400347C347C3400345C
:020000040001F9
:04000E00E4FFFFDF2D
:00000001FF
